{
  "_format": "hh-sol-artifact-1",
  "contractName": "StakeHolder",
  "sourceName": "contracts/IndividualStakeHolder.sol",
  "abi": [
    {
      "inputs": [
        {
          "internalType": "address",
          "name": "_staker",
          "type": "address"
        },
        {
          "internalType": "address",
          "name": "_masterContract",
          "type": "address"
        }
      ],
      "stateMutability": "payable",
      "type": "constructor"
    },
    {
      "anonymous": false,
      "inputs": [
        {
          "indexed": true,
          "internalType": "address",
          "name": "from",
          "type": "address"
        },
        {
          "indexed": false,
          "internalType": "uint256",
          "name": "amount",
          "type": "uint256"
        }
      ],
      "name": "DepositReceived",
      "type": "event"
    },
    {
      "anonymous": false,
      "inputs": [
        {
          "indexed": true,
          "internalType": "address",
          "name": "to",
          "type": "address"
        },
        {
          "indexed": false,
          "internalType": "uint256",
          "name": "amount",
          "type": "uint256"
        }
      ],
      "name": "FundsReleased",
      "type": "event"
    },
    {
      "inputs": [],
      "name": "deposit",
      "outputs": [],
      "stateMutability": "payable",
      "type": "function"
    },
    {
      "inputs": [],
      "name": "masterContract",
      "outputs": [
        {
          "internalType": "address",
          "name": "",
          "type": "address"
        }
      ],
      "stateMutability": "view",
      "type": "function"
    },
    {
      "inputs": [
        {
          "internalType": "uint256",
          "name": "amount",
          "type": "uint256"
        }
      ],
      "name": "releaseFunds",
      "outputs": [],
      "stateMutability": "nonpayable",
      "type": "function"
    },
    {
      "inputs": [],
      "name": "staker",
      "outputs": [
        {
          "internalType": "address",
          "name": "",
          "type": "address"
        }
      ],
      "stateMutability": "view",
      "type": "function"
    },
    {
      "stateMutability": "payable",
      "type": "receive"
    }
  ],
  "bytecode": "0x608060405260405161095f38038061095f833981810160405281019061002591906101a1565b60003411610068576040517f08c379a000000000000000000000000000000000000000000000000000000000815260040161005f9061023e565b60405180910390fd5b816000806101000a81548173ffffffffffffffffffffffffffffffffffffffff021916908373ffffffffffffffffffffffffffffffffffffffff16021790555080600160006101000a81548173ffffffffffffffffffffffffffffffffffffffff021916908373ffffffffffffffffffffffffffffffffffffffff1602179055508173ffffffffffffffffffffffffffffffffffffffff167f9936746a4565f9766fa768f88f56a7487c78780ac179562773d1c75c5269537e3460405161012f9190610277565b60405180910390a25050610292565b600080fd5b600073ffffffffffffffffffffffffffffffffffffffff82169050919050565b600061016e82610143565b9050919050565b61017e81610163565b811461018957600080fd5b50565b60008151905061019b81610175565b92915050565b600080604083850312156101b8576101b761013e565b5b60006101c68582860161018c565b92505060206101d78582860161018c565b9150509250929050565b600082825260208201905092915050565b7f4d7573742073656e642045544820746f206372656174652061207374616b6500600082015250565b6000610228601f836101e1565b9150610233826101f2565b602082019050919050565b600060208201905081810360008301526102578161021b565b9050919050565b6000819050919050565b6102718161025e565b82525050565b600060208201905061028c6000830184610268565b92915050565b6106be806102a16000396000f3fe6080604052600436106100435760003560e01c80634d68282f1461009d5780635ebaf1db146100c6578063cd446e22146100f1578063d0e30db01461011c57610098565b36610098573373ffffffffffffffffffffffffffffffffffffffff167f9936746a4565f9766fa768f88f56a7487c78780ac179562773d1c75c5269537e3460405161008e9190610412565b60405180910390a2005b600080fd5b3480156100a957600080fd5b506100c460048036038101906100bf919061045e565b610126565b005b3480156100d257600080fd5b506100db6102d1565b6040516100e891906104cc565b60405180910390f35b3480156100fd57600080fd5b506101066102f5565b60405161011391906104cc565b60405180910390f35b61012461031b565b005b600160009054906101000a900473ffffffffffffffffffffffffffffffffffffffff1673ffffffffffffffffffffffffffffffffffffffff163373ffffffffffffffffffffffffffffffffffffffff16146101b6576040517f08c379a00000000000000000000000000000000000000000000000000000000081526004016101ad9061056a565b60405180910390fd5b478111156101f9576040517f08c379a00000000000000000000000000000000000000000000000000000000081526004016101f0906105d6565b60405180910390fd5b60008054906101000a900473ffffffffffffffffffffffffffffffffffffffff1673ffffffffffffffffffffffffffffffffffffffff166108fc829081150290604051600060405180830381858888f1935050505015801561025f573d6000803e3d6000fd5b5060008054906101000a900473ffffffffffffffffffffffffffffffffffffffff1673ffffffffffffffffffffffffffffffffffffffff167f221c08a06b07a64803b3787861a3f276212fcccb51c2e6234077a9b8cb13047a826040516102c69190610412565b60405180910390a250565b60008054906101000a900473ffffffffffffffffffffffffffffffffffffffff1681565b600160009054906101000a900473ffffffffffffffffffffffffffffffffffffffff1681565b60008054906101000a900473ffffffffffffffffffffffffffffffffffffffff1673ffffffffffffffffffffffffffffffffffffffff163373ffffffffffffffffffffffffffffffffffffffff16146103a9576040517f08c379a00000000000000000000000000000000000000000000000000000000081526004016103a090610668565b60405180910390fd5b3373ffffffffffffffffffffffffffffffffffffffff167f9936746a4565f9766fa768f88f56a7487c78780ac179562773d1c75c5269537e346040516103ef9190610412565b60405180910390a2565b6000819050919050565b61040c816103f9565b82525050565b60006020820190506104276000830184610403565b92915050565b600080fd5b61043b816103f9565b811461044657600080fd5b50565b60008135905061045881610432565b92915050565b6000602082840312156104745761047361042d565b5b600061048284828501610449565b91505092915050565b600073ffffffffffffffffffffffffffffffffffffffff82169050919050565b60006104b68261048b565b9050919050565b6104c6816104ab565b82525050565b60006020820190506104e160008301846104bd565b92915050565b600082825260208201905092915050565b7f4f6e6c7920746865206d617374657220636f6e74726163742063616e2072656c60008201527f656173652066756e647300000000000000000000000000000000000000000000602082015250565b6000610554602a836104e7565b915061055f826104f8565b604082019050919050565b6000602082019050818103600083015261058381610547565b9050919050565b7f496e73756666696369656e742062616c616e636520746f2072656c6561736500600082015250565b60006105c0601f836104e7565b91506105cb8261058a565b602082019050919050565b600060208201905081810360008301526105ef816105b3565b9050919050565b7f4f6e6c7920746865207374616b65722063616e206465706f736974206d6f726560008201527f2066756e64730000000000000000000000000000000000000000000000000000602082015250565b60006106526026836104e7565b915061065d826105f6565b604082019050919050565b6000602082019050818103600083015261068181610645565b905091905056fea26469706673582212205b1d140f465570a661d78e015afa4705fac470329683723f064c57fb722eb41864736f6c63430008140033",
  "linkReferences": {},
  "deployedLinkReferences": {}
}