{
  "_format": "hh-sol-artifact-1",
  "contractName": "StakingMaster",
  "sourceName": "contracts/StakingMaster.sol",
  "abi": [
    {
      "inputs": [
        {
          "internalType": "contract CLETH",
          "name": "_clethToken",
          "type": "address"
        }
      ],
      "stateMutability": "nonpayable",
      "type": "constructor"
    },
    {
      "anonymous": false,
      "inputs": [
        {
          "indexed": true,
          "internalType": "address",
          "name": "user",
          "type": "address"
        },
        {
          "indexed": false,
          "internalType": "uint256",
          "name": "amount",
          "type": "uint256"
        }
      ],
      "name": "RewardsRestaked",
      "type": "event"
    },
    {
      "anonymous": false,
      "inputs": [
        {
          "indexed": true,
          "internalType": "address",
          "name": "user",
          "type": "address"
        },
        {
          "indexed": false,
          "internalType": "uint256",
          "name": "amount",
          "type": "uint256"
        }
      ],
      "name": "Withdrawn",
      "type": "event"
    },
    {
      "inputs": [],
      "name": "Owner",
      "outputs": [
        {
          "internalType": "address",
          "name": "",
          "type": "address"
        }
      ],
      "stateMutability": "view",
      "type": "function"
    },
    {
      "inputs": [
        {
          "internalType": "address",
          "name": "user",
          "type": "address"
        }
      ],
      "name": "addToBlacklist",
      "outputs": [],
      "stateMutability": "nonpayable",
      "type": "function"
    },
    {
      "inputs": [
        {
          "internalType": "address",
          "name": "user",
          "type": "address"
        }
      ],
      "name": "addToWhitelist",
      "outputs": [],
      "stateMutability": "nonpayable",
      "type": "function"
    },
    {
      "inputs": [
        {
          "internalType": "address",
          "name": "user",
          "type": "address"
        }
      ],
      "name": "checkUserStatus",
      "outputs": [
        {
          "internalType": "enum StakingMaster.UserStatus",
          "name": "",
          "type": "uint8"
        }
      ],
      "stateMutability": "view",
      "type": "function"
    },
    {
      "inputs": [
        {
          "internalType": "address[]",
          "name": "recipients",
          "type": "address[]"
        },
        {
          "internalType": "uint256[]",
          "name": "amounts",
          "type": "uint256[]"
        }
      ],
      "name": "distributeRewards",
      "outputs": [],
      "stateMutability": "nonpayable",
      "type": "function"
    },
    {
      "inputs": [
        {
          "internalType": "address",
          "name": "account",
          "type": "address"
        }
      ],
      "name": "getStakedBalance",
      "outputs": [
        {
          "internalType": "uint256",
          "name": "",
          "type": "uint256"
        }
      ],
      "stateMutability": "view",
      "type": "function"
    },
    {
      "inputs": [
        {
          "internalType": "address",
          "name": "user",
          "type": "address"
        }
      ],
      "name": "getUserHistory",
      "outputs": [
        {
          "components": [
            {
              "internalType": "enum StakingMaster.ActionType",
              "name": "actionType",
              "type": "uint8"
            },
            {
              "internalType": "uint256",
              "name": "amount",
              "type": "uint256"
            },
            {
              "internalType": "uint256",
              "name": "timestamp",
              "type": "uint256"
            }
          ],
          "internalType": "struct StakingMaster.UserAction[]",
          "name": "",
          "type": "tuple[]"
        }
      ],
      "stateMutability": "view",
      "type": "function"
    },
    {
      "inputs": [
        {
          "internalType": "address",
          "name": "",
          "type": "address"
        }
      ],
      "name": "lastStakeTime",
      "outputs": [
        {
          "internalType": "uint256",
          "name": "",
          "type": "uint256"
        }
      ],
      "stateMutability": "view",
      "type": "function"
    },
    {
      "inputs": [],
      "name": "lockDuration",
      "outputs": [
        {
          "internalType": "uint256",
          "name": "",
          "type": "uint256"
        }
      ],
      "stateMutability": "view",
      "type": "function"
    },
    {
      "inputs": [],
      "name": "pauseCLETH",
      "outputs": [],
      "stateMutability": "nonpayable",
      "type": "function"
    },
    {
      "inputs": [
        {
          "internalType": "address",
          "name": "user",
          "type": "address"
        }
      ],
      "name": "removeFromBlacklist",
      "outputs": [],
      "stateMutability": "nonpayable",
      "type": "function"
    },
    {
      "inputs": [
        {
          "internalType": "address",
          "name": "user",
          "type": "address"
        }
      ],
      "name": "removeFromWhitelist",
      "outputs": [],
      "stateMutability": "nonpayable",
      "type": "function"
    },
    {
      "inputs": [],
      "name": "restakeRewards",
      "outputs": [],
      "stateMutability": "nonpayable",
      "type": "function"
    },
    {
      "inputs": [],
      "name": "stake",
      "outputs": [],
      "stateMutability": "payable",
      "type": "function"
    },
    {
      "inputs": [],
      "name": "totalPool",
      "outputs": [
        {
          "internalType": "uint256",
          "name": "",
          "type": "uint256"
        }
      ],
      "stateMutability": "view",
      "type": "function"
    },
    {
      "inputs": [],
      "name": "unpauseCLETH",
      "outputs": [],
      "stateMutability": "nonpayable",
      "type": "function"
    },
    {
      "inputs": [
        {
          "internalType": "uint256",
          "name": "amount",
          "type": "uint256"
        }
      ],
      "name": "unstake",
      "outputs": [],
      "stateMutability": "nonpayable",
      "type": "function"
    },
    {
      "inputs": [
        {
          "internalType": "uint256",
          "name": "newDuration",
          "type": "uint256"
        }
      ],
      "name": "updateLockDuration",
      "outputs": [],
      "stateMutability": "nonpayable",
      "type": "function"
    },
    {
      "inputs": [
        {
          "internalType": "address",
          "name": "",
          "type": "address"
        },
        {
          "internalType": "uint256",
          "name": "",
          "type": "uint256"
        }
      ],
      "name": "userHistory",
      "outputs": [
        {
          "internalType": "enum StakingMaster.ActionType",
          "name": "actionType",
          "type": "uint8"
        },
        {
          "internalType": "uint256",
          "name": "amount",
          "type": "uint256"
        },
        {
          "internalType": "uint256",
          "name": "timestamp",
          "type": "uint256"
        }
      ],
      "stateMutability": "view",
      "type": "function"
    },
    {
      "inputs": [
        {
          "internalType": "address",
          "name": "",
          "type": "address"
        }
      ],
      "name": "userStatus",
      "outputs": [
        {
          "internalType": "enum StakingMaster.UserStatus",
          "name": "",
          "type": "uint8"
        }
      ],
      "stateMutability": "view",
      "type": "function"
    },
    {
      "inputs": [
        {
          "internalType": "uint256",
          "name": "amount",
          "type": "uint256"
        }
      ],
      "name": "withdraw",
      "outputs": [],
      "stateMutability": "nonpayable",
      "type": "function"
    }
  ],
  "bytecode": "0x6080604052620151806005553480156200001857600080fd5b5060405162002a4b38038062002a4b83398181016040528101906200003e919062000103565b806000806101000a81548173ffffffffffffffffffffffffffffffffffffffff021916908373ffffffffffffffffffffffffffffffffffffffff1602179055505062000135565b600080fd5b600073ffffffffffffffffffffffffffffffffffffffff82169050919050565b6000620000b7826200008a565b9050919050565b6000620000cb82620000aa565b9050919050565b620000dd81620000be565b8114620000e957600080fd5b50565b600081519050620000fd81620000d2565b92915050565b6000602082840312156200011c576200011b62000085565b5b60006200012c84828501620000ec565b91505092915050565b61290680620001456000396000f3fe60806040526004361061012a5760003560e01c806344337ea1116100ab57806389377af71161006f57806389377af7146103cf5780638ab1d681146103e6578063b4a99a4e1461040f578063d477edf41461043a578063e43252d714610463578063ecfb49a31461048c5761012a565b806344337ea1146102ec5780634fb3d3b114610315578063537df3b614610352578063561982791461037b5780637bb1ca19146103925761012a565b80632e1a7d4d116100f25780632e1a7d4d146102285780633a02a42d146102515780633a4b66f11461028e5780633d8527ba14610298578063410e9385146102af5761012a565b8063045544431461012f578063143ba4f31461015a578063225d29a11461018357806322e8b990146101c05780632e17de78146101ff575b600080fd5b34801561013b57600080fd5b506101446104b7565b6040516101519190611c27565b60405180910390f35b34801561016657600080fd5b50610181600480360381019061017c9190611efc565b6104bd565b005b34801561018f57600080fd5b506101aa60048036038101906101a59190611f74565b6105e6565b6040516101b79190612018565b60405180910390f35b3480156101cc57600080fd5b506101e760048036038101906101e29190612033565b610606565b6040516101f6939291906120bb565b60405180910390f35b34801561020b57600080fd5b50610226600480360381019061022191906120f2565b61065a565b005b34801561023457600080fd5b5061024f600480360381019061024a91906120f2565b610bcd565b005b34801561025d57600080fd5b5061027860048036038101906102739190611f74565b610f04565b6040516102859190611c27565b60405180910390f35b610296610f4d565b005b3480156102a457600080fd5b506102ad61116b565b005b3480156102bb57600080fd5b506102d660048036038101906102d19190611f74565b61154a565b6040516102e39190612018565b60405180910390f35b3480156102f857600080fd5b50610313600480360381019061030e9190611f74565b6115a0565b005b34801561032157600080fd5b5061033c60048036038101906103379190611f74565b61169b565b604051610349919061222e565b60405180910390f35b34801561035e57600080fd5b5061037960048036038101906103749190611f74565b611788565b005b34801561038757600080fd5b50610390611883565b005b34801561039e57600080fd5b506103b960048036038101906103b49190611f74565b611905565b6040516103c69190611c27565b60405180910390f35b3480156103db57600080fd5b506103e461191d565b005b3480156103f257600080fd5b5061040d60048036038101906104089190611f74565b61199f565b005b34801561041b57600080fd5b50610424611a9a565b604051610431919061225f565b60405180910390f35b34801561044657600080fd5b50610461600480360381019061045c91906120f2565b611ac0565b005b34801561046f57600080fd5b5061048a60048036038101906104859190611f74565b611b0d565b005b34801561049857600080fd5b506104a1611c08565b6040516104ae9190611c27565b60405180910390f35b60055481565b8051825114610501576040517f08c379a00000000000000000000000000000000000000000000000000000000081526004016104f8906122d7565b60405180910390fd5b60005b82518110156105e15760008054906101000a900473ffffffffffffffffffffffffffffffffffffffff1673ffffffffffffffffffffffffffffffffffffffff16639feb8f5084838151811061055c5761055b6122f7565b5b6020026020010151848481518110610577576105766122f7565b5b60200260200101516040518363ffffffff1660e01b815260040161059c929190612326565b600060405180830381600087803b1580156105b657600080fd5b505af11580156105ca573d6000803e3d6000fd5b5050505080806105d99061237e565b915050610504565b505050565b60076020528060005260406000206000915054906101000a900460ff1681565b6003602052816000526040600020818154811061062257600080fd5b9060005260206000209060030201600091509150508060000160009054906101000a900460ff16908060010154908060020154905083565b6001600281111561066e5761066d611fa1565b5b600760003373ffffffffffffffffffffffffffffffffffffffff1673ffffffffffffffffffffffffffffffffffffffff16815260200190815260200160002060009054906101000a900460ff1660028111156106cd576106cc611fa1565b5b1461070d576040517f08c379a000000000000000000000000000000000000000000000000000000000815260040161070490612412565b60405180910390fd5b6002808111156107205761071f611fa1565b5b600760003373ffffffffffffffffffffffffffffffffffffffff1673ffffffffffffffffffffffffffffffffffffffff16815260200190815260200160002060009054906101000a900460ff16600281111561077f5761077e611fa1565b5b036107bf576040517f08c379a00000000000000000000000000000000000000000000000000000000081526004016107b69061247e565b60405180910390fd5b600554600260003373ffffffffffffffffffffffffffffffffffffffff1673ffffffffffffffffffffffffffffffffffffffff1681526020019081526020016000205461080c919061249e565b42101561084e576040517f08c379a00000000000000000000000000000000000000000000000000000000081526004016108459061251e565b60405180910390fd5b80600160003373ffffffffffffffffffffffffffffffffffffffff1673ffffffffffffffffffffffffffffffffffffffff1681526020019081526020016000205410156108d0576040517f08c379a00000000000000000000000000000000000000000000000000000000081526004016108c79061258a565b60405180910390fd5b8060008054906101000a900473ffffffffffffffffffffffffffffffffffffffff1673ffffffffffffffffffffffffffffffffffffffff166370a08231336040518263ffffffff1660e01b815260040161092a919061225f565b602060405180830381865afa158015610947573d6000803e3d6000fd5b505050506040513d601f19601f8201168201806040525081019061096b91906125bf565b10156109ac576040517f08c379a00000000000000000000000000000000000000000000000000000000081526004016109a390612638565b60405180910390fd5b80600160003373ffffffffffffffffffffffffffffffffffffffff1673ffffffffffffffffffffffffffffffffffffffff16815260200190815260200160002060008282546109fb9190612658565b9250508190555060008054906101000a900473ffffffffffffffffffffffffffffffffffffffff1673ffffffffffffffffffffffffffffffffffffffff16639dc29fac33836040518363ffffffff1660e01b8152600401610a5d929190612326565b600060405180830381600087803b158015610a7757600080fd5b505af1158015610a8b573d6000803e3d6000fd5b505050503373ffffffffffffffffffffffffffffffffffffffff166108fc829081150290604051600060405180830381858888f19350505050158015610ad5573d6000803e3d6000fd5b508060046000828254610ae89190612658565b92505081905550600360003373ffffffffffffffffffffffffffffffffffffffff1673ffffffffffffffffffffffffffffffffffffffff1681526020019081526020016000206040518060600160405280600380811115610b4c57610b4b611fa1565b5b815260200183815260200142815250908060018154018082558091505060019003906000526020600020906003020160009091909190915060008201518160000160006101000a81548160ff02191690836003811115610baf57610bae611fa1565b5b02179055506020820151816001015560408201518160020155505050565b600554600260003373ffffffffffffffffffffffffffffffffffffffff1673ffffffffffffffffffffffffffffffffffffffff16815260200190815260200160002054610c1a919061249e565b421015610c5c576040517f08c379a0000000000000000000000000000000000000000000000000000000008152600401610c539061251e565b60405180910390fd5b60008111610c9f576040517f08c379a0000000000000000000000000000000000000000000000000000000008152600401610c96906126d8565b60405180910390fd5b80600160003373ffffffffffffffffffffffffffffffffffffffff1673ffffffffffffffffffffffffffffffffffffffff168152602001908152602001600020541015610d21576040517f08c379a0000000000000000000000000000000000000000000000000000000008152600401610d189061258a565b60405180910390fd5b80600160003373ffffffffffffffffffffffffffffffffffffffff1673ffffffffffffffffffffffffffffffffffffffff1681526020019081526020016000206000828254610d709190612658565b925050819055503373ffffffffffffffffffffffffffffffffffffffff166108fc829081150290604051600060405180830381858888f19350505050158015610dbd573d6000803e3d6000fd5b508060046000828254610dd09190612658565b92505081905550600360003373ffffffffffffffffffffffffffffffffffffffff1673ffffffffffffffffffffffffffffffffffffffff168152602001908152602001600020604051806060016040528060026003811115610e3557610e34611fa1565b5b815260200183815260200142815250908060018154018082558091505060019003906000526020600020906003020160009091909190915060008201518160000160006101000a81548160ff02191690836003811115610e9857610e97611fa1565b5b0217905550602082015181600101556040820151816002015550503373ffffffffffffffffffffffffffffffffffffffff167f7084f5476618d8e60b11ef0d7d3f06914655adb8793e28ff7f018d4c76d505d582604051610ef99190611c27565b60405180910390a250565b6000600160008373ffffffffffffffffffffffffffffffffffffffff1673ffffffffffffffffffffffffffffffffffffffff168152602001908152602001600020549050919050565b34600160003373ffffffffffffffffffffffffffffffffffffffff1673ffffffffffffffffffffffffffffffffffffffff1681526020019081526020016000206000828254610f9c919061249e565b9250508190555060008054906101000a900473ffffffffffffffffffffffffffffffffffffffff1673ffffffffffffffffffffffffffffffffffffffff166340c10f1933346040518363ffffffff1660e01b8152600401610ffe929190612326565b600060405180830381600087803b15801561101857600080fd5b505af115801561102c573d6000803e3d6000fd5b5050505042600260003373ffffffffffffffffffffffffffffffffffffffff1673ffffffffffffffffffffffffffffffffffffffff168152602001908152602001600020819055503460046000828254611086919061249e565b92505081905550600360003373ffffffffffffffffffffffffffffffffffffffff1673ffffffffffffffffffffffffffffffffffffffff1681526020019081526020016000206040518060600160405280600060038111156110eb576110ea611fa1565b5b815260200134815260200142815250908060018154018082558091505060019003906000526020600020906003020160009091909190915060008201518160000160006101000a81548160ff0219169083600381111561114e5761114d611fa1565b5b021790555060208201518160010155604082015181600201555050565b60008060009054906101000a900473ffffffffffffffffffffffffffffffffffffffff1673ffffffffffffffffffffffffffffffffffffffff16630700037d336040518263ffffffff1660e01b81526004016111c7919061225f565b602060405180830381865afa1580156111e4573d6000803e3d6000fd5b505050506040513d601f19601f8201168201806040525081019061120891906125bf565b90506000811161124d576040517f08c379a000000000000000000000000000000000000000000000000000000000815260040161124490612744565b60405180910390fd5b600554600260003373ffffffffffffffffffffffffffffffffffffffff1673ffffffffffffffffffffffffffffffffffffffff1681526020019081526020016000205461129a919061249e565b4210156112dc576040517f08c379a00000000000000000000000000000000000000000000000000000000081526004016112d39061251e565b60405180910390fd5b60008054906101000a900473ffffffffffffffffffffffffffffffffffffffff1673ffffffffffffffffffffffffffffffffffffffff1663eacccaf03360006040518363ffffffff1660e01b81526004016113389291906127a9565b600060405180830381600087803b15801561135257600080fd5b505af1158015611366573d6000803e3d6000fd5b5050505080600160003373ffffffffffffffffffffffffffffffffffffffff1673ffffffffffffffffffffffffffffffffffffffff16815260200190815260200160002060008282546113b9919061249e565b9250508190555042600260003373ffffffffffffffffffffffffffffffffffffffff1673ffffffffffffffffffffffffffffffffffffffff168152602001908152602001600020819055508060046000828254611416919061249e565b92505081905550600360003373ffffffffffffffffffffffffffffffffffffffff1673ffffffffffffffffffffffffffffffffffffffff16815260200190815260200160002060405180606001604052806001600381111561147b5761147a611fa1565b5b815260200183815260200142815250908060018154018082558091505060019003906000526020600020906003020160009091909190915060008201518160000160006101000a81548160ff021916908360038111156114de576114dd611fa1565b5b0217905550602082015181600101556040820151816002015550503373ffffffffffffffffffffffffffffffffffffffff167f18cc89000db1d98f828da5d95fdcf7904c5ea5502ca52f1a1efe59f2cf3d3e2f8260405161153f9190611c27565b60405180910390a250565b6000600760008373ffffffffffffffffffffffffffffffffffffffff1673ffffffffffffffffffffffffffffffffffffffff16815260200190815260200160002060009054906101000a900460ff169050919050565b600660009054906101000a900473ffffffffffffffffffffffffffffffffffffffff1673ffffffffffffffffffffffffffffffffffffffff163373ffffffffffffffffffffffffffffffffffffffff1614611630576040517f08c379a000000000000000000000000000000000000000000000000000000000815260040161162790612844565b60405180910390fd5b6002600760008373ffffffffffffffffffffffffffffffffffffffff1673ffffffffffffffffffffffffffffffffffffffff16815260200190815260200160002060006101000a81548160ff0219169083600281111561169357611692611fa1565b5b021790555050565b6060600360008373ffffffffffffffffffffffffffffffffffffffff1673ffffffffffffffffffffffffffffffffffffffff168152602001908152602001600020805480602002602001604051908101604052809291908181526020016000905b8282101561177d57838290600052602060002090600302016040518060600160405290816000820160009054906101000a900460ff16600381111561174457611743611fa1565b5b600381111561175657611755611fa1565b5b815260200160018201548152602001600282015481525050815260200190600101906116fc565b505050509050919050565b600660009054906101000a900473ffffffffffffffffffffffffffffffffffffffff1673ffffffffffffffffffffffffffffffffffffffff163373ffffffffffffffffffffffffffffffffffffffff1614611818576040517f08c379a000000000000000000000000000000000000000000000000000000000815260040161180f90612844565b60405180910390fd5b6000600760008373ffffffffffffffffffffffffffffffffffffffff1673ffffffffffffffffffffffffffffffffffffffff16815260200190815260200160002060006101000a81548160ff0219169083600281111561187b5761187a611fa1565b5b021790555050565b60008054906101000a900473ffffffffffffffffffffffffffffffffffffffff1673ffffffffffffffffffffffffffffffffffffffff16633f4ba83a6040518163ffffffff1660e01b8152600401600060405180830381600087803b1580156118eb57600080fd5b505af11580156118ff573d6000803e3d6000fd5b50505050565b60026020528060005260406000206000915090505481565b60008054906101000a900473ffffffffffffffffffffffffffffffffffffffff1673ffffffffffffffffffffffffffffffffffffffff16638456cb596040518163ffffffff1660e01b8152600401600060405180830381600087803b15801561198557600080fd5b505af1158015611999573d6000803e3d6000fd5b50505050565b600660009054906101000a900473ffffffffffffffffffffffffffffffffffffffff1673ffffffffffffffffffffffffffffffffffffffff163373ffffffffffffffffffffffffffffffffffffffff1614611a2f576040517f08c379a0000000000000000000000000000000000000000000000000000000008152600401611a2690612844565b60405180910390fd5b6000600760008373ffffffffffffffffffffffffffffffffffffffff1673ffffffffffffffffffffffffffffffffffffffff16815260200190815260200160002060006101000a81548160ff02191690836002811115611a9257611a91611fa1565b5b021790555050565b600660009054906101000a900473ffffffffffffffffffffffffffffffffffffffff1681565b60008111611b03576040517f08c379a0000000000000000000000000000000000000000000000000000000008152600401611afa906128b0565b60405180910390fd5b8060058190555050565b600660009054906101000a900473ffffffffffffffffffffffffffffffffffffffff1673ffffffffffffffffffffffffffffffffffffffff163373ffffffffffffffffffffffffffffffffffffffff1614611b9d576040517f08c379a0000000000000000000000000000000000000000000000000000000008152600401611b9490612844565b60405180910390fd5b6001600760008373ffffffffffffffffffffffffffffffffffffffff1673ffffffffffffffffffffffffffffffffffffffff16815260200190815260200160002060006101000a81548160ff02191690836002811115611c0057611bff611fa1565b5b021790555050565b60045481565b6000819050919050565b611c2181611c0e565b82525050565b6000602082019050611c3c6000830184611c18565b92915050565b6000604051905090565b600080fd5b600080fd5b600080fd5b6000601f19601f8301169050919050565b7f4e487b7100000000000000000000000000000000000000000000000000000000600052604160045260246000fd5b611ca482611c5b565b810181811067ffffffffffffffff82111715611cc357611cc2611c6c565b5b80604052505050565b6000611cd6611c42565b9050611ce28282611c9b565b919050565b600067ffffffffffffffff821115611d0257611d01611c6c565b5b602082029050602081019050919050565b600080fd5b600073ffffffffffffffffffffffffffffffffffffffff82169050919050565b6000611d4382611d18565b9050919050565b611d5381611d38565b8114611d5e57600080fd5b50565b600081359050611d7081611d4a565b92915050565b6000611d89611d8484611ce7565b611ccc565b90508083825260208201905060208402830185811115611dac57611dab611d13565b5b835b81811015611dd55780611dc18882611d61565b845260208401935050602081019050611dae565b5050509392505050565b600082601f830112611df457611df3611c56565b5b8135611e04848260208601611d76565b91505092915050565b600067ffffffffffffffff821115611e2857611e27611c6c565b5b602082029050602081019050919050565b611e4281611c0e565b8114611e4d57600080fd5b50565b600081359050611e5f81611e39565b92915050565b6000611e78611e7384611e0d565b611ccc565b90508083825260208201905060208402830185811115611e9b57611e9a611d13565b5b835b81811015611ec45780611eb08882611e50565b845260208401935050602081019050611e9d565b5050509392505050565b600082601f830112611ee357611ee2611c56565b5b8135611ef3848260208601611e65565b91505092915050565b60008060408385031215611f1357611f12611c4c565b5b600083013567ffffffffffffffff811115611f3157611f30611c51565b5b611f3d85828601611ddf565b925050602083013567ffffffffffffffff811115611f5e57611f5d611c51565b5b611f6a85828601611ece565b9150509250929050565b600060208284031215611f8a57611f89611c4c565b5b6000611f9884828501611d61565b91505092915050565b7f4e487b7100000000000000000000000000000000000000000000000000000000600052602160045260246000fd5b60038110611fe157611fe0611fa1565b5b50565b6000819050611ff282611fd0565b919050565b600061200282611fe4565b9050919050565b61201281611ff7565b82525050565b600060208201905061202d6000830184612009565b92915050565b6000806040838503121561204a57612049611c4c565b5b600061205885828601611d61565b925050602061206985828601611e50565b9150509250929050565b6004811061208457612083611fa1565b5b50565b600081905061209582612073565b919050565b60006120a582612087565b9050919050565b6120b58161209a565b82525050565b60006060820190506120d060008301866120ac565b6120dd6020830185611c18565b6120ea6040830184611c18565b949350505050565b60006020828403121561210857612107611c4c565b5b600061211684828501611e50565b91505092915050565b600081519050919050565b600082825260208201905092915050565b6000819050602082019050919050565b6121548161209a565b82525050565b61216381611c0e565b82525050565b60608201600082015161217f600085018261214b565b506020820151612192602085018261215a565b5060408201516121a5604085018261215a565b50505050565b60006121b78383612169565b60608301905092915050565b6000602082019050919050565b60006121db8261211f565b6121e5818561212a565b93506121f08361213b565b8060005b8381101561222157815161220888826121ab565b9750612213836121c3565b9250506001810190506121f4565b5085935050505092915050565b6000602082019050818103600083015261224881846121d0565b905092915050565b61225981611d38565b82525050565b60006020820190506122746000830184612250565b92915050565b600082825260208201905092915050565b7f4d69736d61746368656420617272617973000000000000000000000000000000600082015250565b60006122c160118361227a565b91506122cc8261228b565b602082019050919050565b600060208201905081810360008301526122f0816122b4565b9050919050565b7f4e487b7100000000000000000000000000000000000000000000000000000000600052603260045260246000fd5b600060408201905061233b6000830185612250565b6123486020830184611c18565b9392505050565b7f4e487b7100000000000000000000000000000000000000000000000000000000600052601160045260246000fd5b600061238982611c0e565b91507fffffffffffffffffffffffffffffffffffffffffffffffffffffffffffffffff82036123bb576123ba61234f565b5b600182019050919050565b7f55736572206973206e6f742077686974656c6973746564000000000000000000600082015250565b60006123fc60178361227a565b9150612407826123c6565b602082019050919050565b6000602082019050818103600083015261242b816123ef565b9050919050565b7f5573657220697320626c61636b6c697374656400000000000000000000000000600082015250565b600061246860138361227a565b915061247382612432565b602082019050919050565b600060208201905081810360008301526124978161245b565b9050919050565b60006124a982611c0e565b91506124b483611c0e565b92508282019050808211156124cc576124cb61234f565b5b92915050565b7f546f6b656e7320617265207374696c6c206c6f636b6564000000000000000000600082015250565b600061250860178361227a565b9150612513826124d2565b602082019050919050565b60006020820190508181036000830152612537816124fb565b9050919050565b7f4e6f7420656e6f756768207374616b6564204554480000000000000000000000600082015250565b600061257460158361227a565b915061257f8261253e565b602082019050919050565b600060208201905081810360008301526125a381612567565b9050919050565b6000815190506125b981611e39565b92915050565b6000602082840312156125d5576125d4611c4c565b5b60006125e3848285016125aa565b91505092915050565b7f4e6f7420656e6f75676820434c45544820746f6b656e73000000000000000000600082015250565b600061262260178361227a565b915061262d826125ec565b602082019050919050565b6000602082019050818103600083015261265181612615565b9050919050565b600061266382611c0e565b915061266e83611c0e565b92508282039050818111156126865761268561234f565b5b92915050565b7f43616e6e6f742077697468647261772030000000000000000000000000000000600082015250565b60006126c260118361227a565b91506126cd8261268c565b602082019050919050565b600060208201905081810360008301526126f1816126b5565b9050919050565b7f4e6f207265776172647320746f2072652d7374616b6500000000000000000000600082015250565b600061272e60168361227a565b9150612739826126f8565b602082019050919050565b6000602082019050818103600083015261275d81612721565b9050919050565b6000819050919050565b6000819050919050565b600061279361278e61278984612764565b61276e565b611c0e565b9050919050565b6127a381612778565b82525050565b60006040820190506127be6000830185612250565b6127cb602083018461279a565b9392505050565b7f4f6e6c792074686520636f6e7472616374206465706c6f7965722063616e206560008201527f7865637574652074686973000000000000000000000000000000000000000000602082015250565b600061282e602b8361227a565b9150612839826127d2565b604082019050919050565b6000602082019050818103600083015261285d81612821565b9050919050565b7f4c6f636b206475726174696f6e206d75737420626520706f7369746976650000600082015250565b600061289a601e8361227a565b91506128a582612864565b602082019050919050565b600060208201905081810360008301526128c98161288d565b905091905056fea2646970667358221220aac4cef853cc92cfee936d6c18595fa7235c888ed0492a9230d2fb3306fb390964736f6c63430008140033",
  "linkReferences": {},
  "deployedLinkReferences": {}
}