{
  "_format": "hh-sol-artifact-1",
  "contractName": "CLETH",
  "sourceName": "contracts/CLETH.sol",
  "abi": [
    {
      "inputs": [],
      "stateMutability": "nonpayable",
      "type": "constructor"
    },
    {
      "inputs": [],
      "name": "AccessControlBadConfirmation",
      "type": "error"
    },
    {
      "inputs": [
        {
          "internalType": "address",
          "name": "account",
          "type": "address"
        },
        {
          "internalType": "bytes32",
          "name": "neededRole",
          "type": "bytes32"
        }
      ],
      "name": "AccessControlUnauthorizedAccount",
      "type": "error"
    },
    {
      "inputs": [
        {
          "internalType": "address",
          "name": "spender",
          "type": "address"
        },
        {
          "internalType": "uint256",
          "name": "allowance",
          "type": "uint256"
        },
        {
          "internalType": "uint256",
          "name": "needed",
          "type": "uint256"
        }
      ],
      "name": "ERC20InsufficientAllowance",
      "type": "error"
    },
    {
      "inputs": [
        {
          "internalType": "address",
          "name": "sender",
          "type": "address"
        },
        {
          "internalType": "uint256",
          "name": "balance",
          "type": "uint256"
        },
        {
          "internalType": "uint256",
          "name": "needed",
          "type": "uint256"
        }
      ],
      "name": "ERC20InsufficientBalance",
      "type": "error"
    },
    {
      "inputs": [
        {
          "internalType": "address",
          "name": "approver",
          "type": "address"
        }
      ],
      "name": "ERC20InvalidApprover",
      "type": "error"
    },
    {
      "inputs": [
        {
          "internalType": "address",
          "name": "receiver",
          "type": "address"
        }
      ],
      "name": "ERC20InvalidReceiver",
      "type": "error"
    },
    {
      "inputs": [
        {
          "internalType": "address",
          "name": "sender",
          "type": "address"
        }
      ],
      "name": "ERC20InvalidSender",
      "type": "error"
    },
    {
      "inputs": [
        {
          "internalType": "address",
          "name": "spender",
          "type": "address"
        }
      ],
      "name": "ERC20InvalidSpender",
      "type": "error"
    },
    {
      "inputs": [],
      "name": "EnforcedPause",
      "type": "error"
    },
    {
      "inputs": [],
      "name": "ExpectedPause",
      "type": "error"
    },
    {
      "anonymous": false,
      "inputs": [
        {
          "indexed": true,
          "internalType": "address",
          "name": "owner",
          "type": "address"
        },
        {
          "indexed": true,
          "internalType": "address",
          "name": "spender",
          "type": "address"
        },
        {
          "indexed": false,
          "internalType": "uint256",
          "name": "value",
          "type": "uint256"
        }
      ],
      "name": "Approval",
      "type": "event"
    },
    {
      "anonymous": false,
      "inputs": [
        {
          "indexed": false,
          "internalType": "address",
          "name": "account",
          "type": "address"
        }
      ],
      "name": "Paused",
      "type": "event"
    },
    {
      "anonymous": false,
      "inputs": [
        {
          "indexed": true,
          "internalType": "bytes32",
          "name": "role",
          "type": "bytes32"
        },
        {
          "indexed": true,
          "internalType": "bytes32",
          "name": "previousAdminRole",
          "type": "bytes32"
        },
        {
          "indexed": true,
          "internalType": "bytes32",
          "name": "newAdminRole",
          "type": "bytes32"
        }
      ],
      "name": "RoleAdminChanged",
      "type": "event"
    },
    {
      "anonymous": false,
      "inputs": [
        {
          "indexed": true,
          "internalType": "bytes32",
          "name": "role",
          "type": "bytes32"
        },
        {
          "indexed": true,
          "internalType": "address",
          "name": "account",
          "type": "address"
        },
        {
          "indexed": true,
          "internalType": "address",
          "name": "sender",
          "type": "address"
        }
      ],
      "name": "RoleGranted",
      "type": "event"
    },
    {
      "anonymous": false,
      "inputs": [
        {
          "indexed": true,
          "internalType": "bytes32",
          "name": "role",
          "type": "bytes32"
        },
        {
          "indexed": true,
          "internalType": "address",
          "name": "account",
          "type": "address"
        },
        {
          "indexed": true,
          "internalType": "address",
          "name": "sender",
          "type": "address"
        }
      ],
      "name": "RoleRevoked",
      "type": "event"
    },
    {
      "anonymous": false,
      "inputs": [
        {
          "indexed": true,
          "internalType": "address",
          "name": "from",
          "type": "address"
        },
        {
          "indexed": true,
          "internalType": "address",
          "name": "to",
          "type": "address"
        },
        {
          "indexed": false,
          "internalType": "uint256",
          "name": "value",
          "type": "uint256"
        }
      ],
      "name": "Transfer",
      "type": "event"
    },
    {
      "anonymous": false,
      "inputs": [
        {
          "indexed": false,
          "internalType": "address",
          "name": "account",
          "type": "address"
        }
      ],
      "name": "Unpaused",
      "type": "event"
    },
    {
      "inputs": [],
      "name": "BURNER_ROLE",
      "outputs": [
        {
          "internalType": "bytes32",
          "name": "",
          "type": "bytes32"
        }
      ],
      "stateMutability": "view",
      "type": "function"
    },
    {
      "inputs": [],
      "name": "DEFAULT_ADMIN_ROLE",
      "outputs": [
        {
          "internalType": "bytes32",
          "name": "",
          "type": "bytes32"
        }
      ],
      "stateMutability": "view",
      "type": "function"
    },
    {
      "inputs": [],
      "name": "MINTER_ROLE",
      "outputs": [
        {
          "internalType": "bytes32",
          "name": "",
          "type": "bytes32"
        }
      ],
      "stateMutability": "view",
      "type": "function"
    },
    {
      "inputs": [],
      "name": "PAUSER_ROLE",
      "outputs": [
        {
          "internalType": "bytes32",
          "name": "",
          "type": "bytes32"
        }
      ],
      "stateMutability": "view",
      "type": "function"
    },
    {
      "inputs": [
        {
          "internalType": "address",
          "name": "account",
          "type": "address"
        },
        {
          "internalType": "uint256",
          "name": "amount",
          "type": "uint256"
        }
      ],
      "name": "addReward",
      "outputs": [],
      "stateMutability": "nonpayable",
      "type": "function"
    },
    {
      "inputs": [
        {
          "internalType": "address",
          "name": "owner",
          "type": "address"
        },
        {
          "internalType": "address",
          "name": "spender",
          "type": "address"
        }
      ],
      "name": "allowance",
      "outputs": [
        {
          "internalType": "uint256",
          "name": "",
          "type": "uint256"
        }
      ],
      "stateMutability": "view",
      "type": "function"
    },
    {
      "inputs": [
        {
          "internalType": "address",
          "name": "spender",
          "type": "address"
        },
        {
          "internalType": "uint256",
          "name": "value",
          "type": "uint256"
        }
      ],
      "name": "approve",
      "outputs": [
        {
          "internalType": "bool",
          "name": "",
          "type": "bool"
        }
      ],
      "stateMutability": "nonpayable",
      "type": "function"
    },
    {
      "inputs": [
        {
          "internalType": "address",
          "name": "account",
          "type": "address"
        }
      ],
      "name": "balanceOf",
      "outputs": [
        {
          "internalType": "uint256",
          "name": "",
          "type": "uint256"
        }
      ],
      "stateMutability": "view",
      "type": "function"
    },
    {
      "inputs": [
        {
          "internalType": "address",
          "name": "from",
          "type": "address"
        },
        {
          "internalType": "uint256",
          "name": "amount",
          "type": "uint256"
        }
      ],
      "name": "burn",
      "outputs": [],
      "stateMutability": "nonpayable",
      "type": "function"
    },
    {
      "inputs": [
        {
          "internalType": "address",
          "name": "account",
          "type": "address"
        }
      ],
      "name": "claimReward",
      "outputs": [],
      "stateMutability": "nonpayable",
      "type": "function"
    },
    {
      "inputs": [],
      "name": "decimals",
      "outputs": [
        {
          "internalType": "uint8",
          "name": "",
          "type": "uint8"
        }
      ],
      "stateMutability": "view",
      "type": "function"
    },
    {
      "inputs": [
        {
          "internalType": "bytes32",
          "name": "role",
          "type": "bytes32"
        }
      ],
      "name": "getRoleAdmin",
      "outputs": [
        {
          "internalType": "bytes32",
          "name": "",
          "type": "bytes32"
        }
      ],
      "stateMutability": "view",
      "type": "function"
    },
    {
      "inputs": [
        {
          "internalType": "bytes32",
          "name": "role",
          "type": "bytes32"
        },
        {
          "internalType": "address",
          "name": "account",
          "type": "address"
        }
      ],
      "name": "grantRole",
      "outputs": [],
      "stateMutability": "nonpayable",
      "type": "function"
    },
    {
      "inputs": [
        {
          "internalType": "address",
          "name": "stakingMaster",
          "type": "address"
        }
      ],
      "name": "grantRoles",
      "outputs": [],
      "stateMutability": "nonpayable",
      "type": "function"
    },
    {
      "inputs": [
        {
          "internalType": "bytes32",
          "name": "role",
          "type": "bytes32"
        },
        {
          "internalType": "address",
          "name": "account",
          "type": "address"
        }
      ],
      "name": "hasRole",
      "outputs": [
        {
          "internalType": "bool",
          "name": "",
          "type": "bool"
        }
      ],
      "stateMutability": "view",
      "type": "function"
    },
    {
      "inputs": [
        {
          "internalType": "address",
          "name": "to",
          "type": "address"
        },
        {
          "internalType": "uint256",
          "name": "amount",
          "type": "uint256"
        }
      ],
      "name": "mint",
      "outputs": [],
      "stateMutability": "nonpayable",
      "type": "function"
    },
    {
      "inputs": [],
      "name": "name",
      "outputs": [
        {
          "internalType": "string",
          "name": "",
          "type": "string"
        }
      ],
      "stateMutability": "view",
      "type": "function"
    },
    {
      "inputs": [],
      "name": "pause",
      "outputs": [],
      "stateMutability": "nonpayable",
      "type": "function"
    },
    {
      "inputs": [],
      "name": "paused",
      "outputs": [
        {
          "internalType": "bool",
          "name": "",
          "type": "bool"
        }
      ],
      "stateMutability": "view",
      "type": "function"
    },
    {
      "inputs": [
        {
          "internalType": "bytes32",
          "name": "role",
          "type": "bytes32"
        },
        {
          "internalType": "address",
          "name": "callerConfirmation",
          "type": "address"
        }
      ],
      "name": "renounceRole",
      "outputs": [],
      "stateMutability": "nonpayable",
      "type": "function"
    },
    {
      "inputs": [
        {
          "internalType": "bytes32",
          "name": "role",
          "type": "bytes32"
        },
        {
          "internalType": "address",
          "name": "account",
          "type": "address"
        }
      ],
      "name": "revokeRole",
      "outputs": [],
      "stateMutability": "nonpayable",
      "type": "function"
    },
    {
      "inputs": [
        {
          "internalType": "address",
          "name": "",
          "type": "address"
        }
      ],
      "name": "rewards",
      "outputs": [
        {
          "internalType": "uint256",
          "name": "",
          "type": "uint256"
        }
      ],
      "stateMutability": "view",
      "type": "function"
    },
    {
      "inputs": [
        {
          "internalType": "address",
          "name": "account",
          "type": "address"
        },
        {
          "internalType": "uint256",
          "name": "amount",
          "type": "uint256"
        }
      ],
      "name": "setReward",
      "outputs": [],
      "stateMutability": "nonpayable",
      "type": "function"
    },
    {
      "inputs": [
        {
          "internalType": "bytes4",
          "name": "interfaceId",
          "type": "bytes4"
        }
      ],
      "name": "supportsInterface",
      "outputs": [
        {
          "internalType": "bool",
          "name": "",
          "type": "bool"
        }
      ],
      "stateMutability": "view",
      "type": "function"
    },
    {
      "inputs": [],
      "name": "symbol",
      "outputs": [
        {
          "internalType": "string",
          "name": "",
          "type": "string"
        }
      ],
      "stateMutability": "view",
      "type": "function"
    },
    {
      "inputs": [],
      "name": "totalSupply",
      "outputs": [
        {
          "internalType": "uint256",
          "name": "",
          "type": "uint256"
        }
      ],
      "stateMutability": "view",
      "type": "function"
    },
    {
      "inputs": [
        {
          "internalType": "address",
          "name": "to",
          "type": "address"
        },
        {
          "internalType": "uint256",
          "name": "value",
          "type": "uint256"
        }
      ],
      "name": "transfer",
      "outputs": [
        {
          "internalType": "bool",
          "name": "",
          "type": "bool"
        }
      ],
      "stateMutability": "nonpayable",
      "type": "function"
    },
    {
      "inputs": [
        {
          "internalType": "address",
          "name": "from",
          "type": "address"
        },
        {
          "internalType": "address",
          "name": "to",
          "type": "address"
        },
        {
          "internalType": "uint256",
          "name": "value",
          "type": "uint256"
        }
      ],
      "name": "transferFrom",
      "outputs": [
        {
          "internalType": "bool",
          "name": "",
          "type": "bool"
        }
      ],
      "stateMutability": "nonpayable",
      "type": "function"
    },
    {
      "inputs": [],
      "name": "unpause",
      "outputs": [],
      "stateMutability": "nonpayable",
      "type": "function"
    }
  ],
  "bytecode": "0x60806040523480156200001157600080fd5b506040518060400160405280600b81526020017f434c45544820546f6b656e0000000000000000000000000000000000000000008152506040518060400160405280600581526020017f434c45544800000000000000000000000000000000000000000000000000000081525081600390816200008f9190620004cc565b508060049081620000a19190620004cc565b5050506000600660006101000a81548160ff021916908315150217905550620000d46000801b33620000db60201b60201c565b50620005b3565b6000620000ef8383620001df60201b60201c565b620001d45760016005600085815260200190815260200160002060000160008473ffffffffffffffffffffffffffffffffffffffff1673ffffffffffffffffffffffffffffffffffffffff16815260200190815260200160002060006101000a81548160ff021916908315150217905550620001706200024a60201b60201c565b73ffffffffffffffffffffffffffffffffffffffff168273ffffffffffffffffffffffffffffffffffffffff16847f2f8788117e7eff1d82e926ec794901d17c78024a50270940304540a733656f0d60405160405180910390a460019050620001d9565b600090505b92915050565b60006005600084815260200190815260200160002060000160008373ffffffffffffffffffffffffffffffffffffffff1673ffffffffffffffffffffffffffffffffffffffff16815260200190815260200160002060009054906101000a900460ff16905092915050565b600033905090565b600081519050919050565b7f4e487b7100000000000000000000000000000000000000000000000000000000600052604160045260246000fd5b7f4e487b7100000000000000000000000000000000000000000000000000000000600052602260045260246000fd5b60006002820490506001821680620002d457607f821691505b602082108103620002ea57620002e96200028c565b5b50919050565b60008190508160005260206000209050919050565b60006020601f8301049050919050565b600082821b905092915050565b600060088302620003547fffffffffffffffffffffffffffffffffffffffffffffffffffffffffffffffff8262000315565b62000360868362000315565b95508019841693508086168417925050509392505050565b6000819050919050565b6000819050919050565b6000620003ad620003a7620003a18462000378565b62000382565b62000378565b9050919050565b6000819050919050565b620003c9836200038c565b620003e1620003d882620003b4565b84845462000322565b825550505050565b600090565b620003f8620003e9565b62000405818484620003be565b505050565b5b818110156200042d5762000421600082620003ee565b6001810190506200040b565b5050565b601f8211156200047c576200044681620002f0565b620004518462000305565b8101602085101562000461578190505b62000479620004708562000305565b8301826200040a565b50505b505050565b600082821c905092915050565b6000620004a16000198460080262000481565b1980831691505092915050565b6000620004bc83836200048e565b9150826002028217905092915050565b620004d78262000252565b67ffffffffffffffff811115620004f357620004f26200025d565b5b620004ff8254620002bb565b6200050c82828562000431565b600060209050601f8311600181146200054457600084156200052f578287015190505b6200053b8582620004ae565b865550620005ab565b601f1984166200055486620002f0565b60005b828110156200057e5784890151825560018201915060208501945060208101905062000557565b868310156200059e57848901516200059a601f8916826200048e565b8355505b6001600288020188555050505b505050505050565b61203a80620005c36000396000f3fe608060405234801561001057600080fd5b50600436106101cf5760003560e01c806370a0823111610104578063a217fddf116100a2578063d547741f11610071578063d547741f1461051c578063dd62ed3e14610538578063e63ab1e914610568578063eacccaf014610586576101cf565b8063a217fddf14610494578063a9059cbb146104b2578063d279c191146104e2578063d5391393146104fe576101cf565b806391d14854116100de57806391d148541461040e57806395d89b411461043e5780639dc29fac1461045c5780639feb8f5014610478576101cf565b806370a08231146103b85780637ec1d16a146103e85780638456cb5914610404576101cf565b8063282c51f31161017157806336568abe1161014b57806336568abe146103585780633f4ba83a1461037457806340c10f191461037e5780635c975abb1461039a576101cf565b8063282c51f3146103005780632f2ff15d1461031e578063313ce5671461033a576101cf565b8063095ea7b3116101ad578063095ea7b31461025257806318160ddd1461028257806323b872dd146102a0578063248a9ca3146102d0576101cf565b806301ffc9a7146101d457806306fdde03146102045780630700037d14610222575b600080fd5b6101ee60048036038101906101e99190611950565b6105a2565b6040516101fb9190611998565b60405180910390f35b61020c61061c565b6040516102199190611a43565b60405180910390f35b61023c60048036038101906102379190611ac3565b6106ae565b6040516102499190611b09565b60405180910390f35b61026c60048036038101906102679190611b50565b6106c6565b6040516102799190611998565b60405180910390f35b61028a6106e9565b6040516102979190611b09565b60405180910390f35b6102ba60048036038101906102b59190611b90565b6106f3565b6040516102c79190611998565b60405180910390f35b6102ea60048036038101906102e59190611c19565b610722565b6040516102f79190611c55565b60405180910390f35b610308610742565b6040516103159190611c55565b60405180910390f35b61033860048036038101906103339190611c70565b610766565b005b610342610788565b60405161034f9190611ccc565b60405180910390f35b610372600480360381019061036d9190611c70565b610791565b005b61037c61080c565b005b61039860048036038101906103939190611b50565b610841565b005b6103a26108c5565b6040516103af9190611998565b60405180910390f35b6103d260048036038101906103cd9190611ac3565b6108dc565b6040516103df9190611b09565b60405180910390f35b61040260048036038101906103fd9190611ac3565b610924565b005b61040c6109b3565b005b61042860048036038101906104239190611c70565b6109e8565b6040516104359190611998565b60405180910390f35b610446610a53565b6040516104539190611a43565b60405180910390f35b61047660048036038101906104719190611b50565b610ae5565b005b610492600480360381019061048d9190611b50565b610b69565b005b61049c610bee565b6040516104a99190611c55565b60405180910390f35b6104cc60048036038101906104c79190611b50565b610bf5565b6040516104d99190611998565b60405180910390f35b6104fc60048036038101906104f79190611ac3565b610c18565b005b610506610cf2565b6040516105139190611c55565b60405180910390f35b61053660048036038101906105319190611c70565b610d16565b005b610552600480360381019061054d9190611ce7565b610d38565b60405161055f9190611b09565b60405180910390f35b610570610dbf565b60405161057d9190611c55565b60405180910390f35b6105a0600480360381019061059b9190611b50565b610de3565b005b60007f7965db0b000000000000000000000000000000000000000000000000000000007bffffffffffffffffffffffffffffffffffffffffffffffffffffffff1916827bffffffffffffffffffffffffffffffffffffffffffffffffffffffff19161480610615575061061482610e56565b5b9050919050565b60606003805461062b90611d56565b80601f016020809104026020016040519081016040528092919081815260200182805461065790611d56565b80156106a45780601f10610679576101008083540402835291602001916106a4565b820191906000526020600020905b81548152906001019060200180831161068757829003601f168201915b5050505050905090565b60076020528060005260406000206000915090505481565b6000806106d1610ec0565b90506106de818585610ec8565b600191505092915050565b6000600254905090565b6000806106fe610ec0565b905061070b858285610eda565b610716858585610f6e565b60019150509392505050565b600060056000838152602001908152602001600020600101549050919050565b7f3c11d16cbaffd01df69ce1c404f6340ee057498f5f00246190ea54220576a84881565b61076f82610722565b61077881611062565b6107828383611076565b50505050565b60006012905090565b610799610ec0565b73ffffffffffffffffffffffffffffffffffffffff168173ffffffffffffffffffffffffffffffffffffffff16146107fd576040517f6697b23200000000000000000000000000000000000000000000000000000000815260040160405180910390fd5b6108078282611168565b505050565b7f65d7a28e3265b37a6474929f336521b332c1681b933f6cb9f3376673440d862a61083681611062565b61083e61125b565b50565b7f9f2df0fed2c77648de5860a4cc508cd0818c85b8b8a1ab4ceeef8d981c8956a661086b81611062565b6108736112be565b600082116108b6576040517f08c379a00000000000000000000000000000000000000000000000000000000081526004016108ad90611df9565b60405180910390fd5b6108c083836112ff565b505050565b6000600660009054906101000a900460ff16905090565b60008060008373ffffffffffffffffffffffffffffffffffffffff1673ffffffffffffffffffffffffffffffffffffffff168152602001908152602001600020549050919050565b6000801b61093181611062565b61095b7f9f2df0fed2c77648de5860a4cc508cd0818c85b8b8a1ab4ceeef8d981c8956a683610766565b6109857f3c11d16cbaffd01df69ce1c404f6340ee057498f5f00246190ea54220576a84883610766565b6109af7f65d7a28e3265b37a6474929f336521b332c1681b933f6cb9f3376673440d862a83610766565b5050565b7f65d7a28e3265b37a6474929f336521b332c1681b933f6cb9f3376673440d862a6109dd81611062565b6109e5611381565b50565b60006005600084815260200190815260200160002060000160008373ffffffffffffffffffffffffffffffffffffffff1673ffffffffffffffffffffffffffffffffffffffff16815260200190815260200160002060009054906101000a900460ff16905092915050565b606060048054610a6290611d56565b80601f0160208091040260200160405190810160405280929190818152602001828054610a8e90611d56565b8015610adb5780601f10610ab057610100808354040283529160200191610adb565b820191906000526020600020905b815481529060010190602001808311610abe57829003601f168201915b5050505050905090565b7f3c11d16cbaffd01df69ce1c404f6340ee057498f5f00246190ea54220576a848610b0f81611062565b610b176112be565b60008211610b5a576040517f08c379a0000000000000000000000000000000000000000000000000000000008152600401610b5190611e8b565b60405180910390fd5b610b6483836113e4565b505050565b7f9f2df0fed2c77648de5860a4cc508cd0818c85b8b8a1ab4ceeef8d981c8956a6610b9381611062565b81600760008573ffffffffffffffffffffffffffffffffffffffff1673ffffffffffffffffffffffffffffffffffffffff1681526020019081526020016000206000828254610be29190611eda565b92505081905550505050565b6000801b81565b600080610c00610ec0565b9050610c0d818585610f6e565b600191505092915050565b6000600760008373ffffffffffffffffffffffffffffffffffffffff1673ffffffffffffffffffffffffffffffffffffffff16815260200190815260200160002054905060008111610c9f576040517f08c379a0000000000000000000000000000000000000000000000000000000008152600401610c9690611f5a565b60405180910390fd5b6000600760008473ffffffffffffffffffffffffffffffffffffffff1673ffffffffffffffffffffffffffffffffffffffff16815260200190815260200160002081905550610cee82826112ff565b5050565b7f9f2df0fed2c77648de5860a4cc508cd0818c85b8b8a1ab4ceeef8d981c8956a681565b610d1f82610722565b610d2881611062565b610d328383611168565b50505050565b6000600160008473ffffffffffffffffffffffffffffffffffffffff1673ffffffffffffffffffffffffffffffffffffffff16815260200190815260200160002060008373ffffffffffffffffffffffffffffffffffffffff1673ffffffffffffffffffffffffffffffffffffffff16815260200190815260200160002054905092915050565b7f65d7a28e3265b37a6474929f336521b332c1681b933f6cb9f3376673440d862a81565b7f9f2df0fed2c77648de5860a4cc508cd0818c85b8b8a1ab4ceeef8d981c8956a6610e0d81611062565b81600760008573ffffffffffffffffffffffffffffffffffffffff1673ffffffffffffffffffffffffffffffffffffffff16815260200190815260200160002081905550505050565b60007f01ffc9a7000000000000000000000000000000000000000000000000000000007bffffffffffffffffffffffffffffffffffffffffffffffffffffffff1916827bffffffffffffffffffffffffffffffffffffffffffffffffffffffff1916149050919050565b600033905090565b610ed58383836001611466565b505050565b6000610ee68484610d38565b90507fffffffffffffffffffffffffffffffffffffffffffffffffffffffffffffffff8114610f685781811015610f58578281836040517ffb8f41b2000000000000000000000000000000000000000000000000000000008152600401610f4f93929190611f89565b60405180910390fd5b610f6784848484036000611466565b5b50505050565b600073ffffffffffffffffffffffffffffffffffffffff168373ffffffffffffffffffffffffffffffffffffffff1603610fe05760006040517f96c6fd1e000000000000000000000000000000000000000000000000000000008152600401610fd79190611fc0565b60405180910390fd5b600073ffffffffffffffffffffffffffffffffffffffff168273ffffffffffffffffffffffffffffffffffffffff16036110525760006040517fec442f050000000000000000000000000000000000000000000000000000000081526004016110499190611fc0565b60405180910390fd5b61105d83838361163d565b505050565b6110738161106e610ec0565b611862565b50565b600061108283836109e8565b61115d5760016005600085815260200190815260200160002060000160008473ffffffffffffffffffffffffffffffffffffffff1673ffffffffffffffffffffffffffffffffffffffff16815260200190815260200160002060006101000a81548160ff0219169083151502179055506110fa610ec0565b73ffffffffffffffffffffffffffffffffffffffff168273ffffffffffffffffffffffffffffffffffffffff16847f2f8788117e7eff1d82e926ec794901d17c78024a50270940304540a733656f0d60405160405180910390a460019050611162565b600090505b92915050565b600061117483836109e8565b156112505760006005600085815260200190815260200160002060000160008473ffffffffffffffffffffffffffffffffffffffff1673ffffffffffffffffffffffffffffffffffffffff16815260200190815260200160002060006101000a81548160ff0219169083151502179055506111ed610ec0565b73ffffffffffffffffffffffffffffffffffffffff168273ffffffffffffffffffffffffffffffffffffffff16847ff6391f5c32d9c69d2a47ea670b442974b53935d1edc7fd64eb21e047a839171b60405160405180910390a460019050611255565b600090505b92915050565b6112636118b3565b6000600660006101000a81548160ff0219169083151502179055507f5db9ee0a495bf2e6ff9c91a7834c1ba4fdd244a5e8aa4e537bd38aeae4b073aa6112a7610ec0565b6040516112b49190611fc0565b60405180910390a1565b6112c66108c5565b156112fd576040517fd93c066500000000000000000000000000000000000000000000000000000000815260040160405180910390fd5b565b600073ffffffffffffffffffffffffffffffffffffffff168273ffffffffffffffffffffffffffffffffffffffff16036113715760006040517fec442f050000000000000000000000000000000000000000000000000000000081526004016113689190611fc0565b60405180910390fd5b61137d6000838361163d565b5050565b6113896112be565b6001600660006101000a81548160ff0219169083151502179055507f62e78cea01bee320cd4e420270b5ea74000d11b0c9f74754ebdbfc544b05a2586113cd610ec0565b6040516113da9190611fc0565b60405180910390a1565b600073ffffffffffffffffffffffffffffffffffffffff168273ffffffffffffffffffffffffffffffffffffffff16036114565760006040517f96c6fd1e00000000000000000000000000000000000000000000000000000000815260040161144d9190611fc0565b60405180910390fd5b6114628260008361163d565b5050565b600073ffffffffffffffffffffffffffffffffffffffff168473ffffffffffffffffffffffffffffffffffffffff16036114d85760006040517fe602df050000000000000000000000000000000000000000000000000000000081526004016114cf9190611fc0565b60405180910390fd5b600073ffffffffffffffffffffffffffffffffffffffff168373ffffffffffffffffffffffffffffffffffffffff160361154a5760006040517f94280d620000000000000000000000000000000000000000000000000000000081526004016115419190611fc0565b60405180910390fd5b81600160008673ffffffffffffffffffffffffffffffffffffffff1673ffffffffffffffffffffffffffffffffffffffff16815260200190815260200160002060008573ffffffffffffffffffffffffffffffffffffffff1673ffffffffffffffffffffffffffffffffffffffff168152602001908152602001600020819055508015611637578273ffffffffffffffffffffffffffffffffffffffff168473ffffffffffffffffffffffffffffffffffffffff167f8c5be1e5ebec7d5bd14f71427d1e84f3dd0314c0f7b2291e5b200ac8c7c3b9258460405161162e9190611b09565b60405180910390a35b50505050565b600073ffffffffffffffffffffffffffffffffffffffff168373ffffffffffffffffffffffffffffffffffffffff160361168f5780600260008282546116839190611eda565b92505081905550611762565b60008060008573ffffffffffffffffffffffffffffffffffffffff1673ffffffffffffffffffffffffffffffffffffffff1681526020019081526020016000205490508181101561171b578381836040517fe450d38c00000000000000000000000000000000000000000000000000000000815260040161171293929190611f89565b60405180910390fd5b8181036000808673ffffffffffffffffffffffffffffffffffffffff1673ffffffffffffffffffffffffffffffffffffffff16815260200190815260200160002081905550505b600073ffffffffffffffffffffffffffffffffffffffff168273ffffffffffffffffffffffffffffffffffffffff16036117ab57806002600082825403925050819055506117f8565b806000808473ffffffffffffffffffffffffffffffffffffffff1673ffffffffffffffffffffffffffffffffffffffff168152602001908152602001600020600082825401925050819055505b8173ffffffffffffffffffffffffffffffffffffffff168373ffffffffffffffffffffffffffffffffffffffff167fddf252ad1be2c89b69c2b068fc378daa952ba7f163c4a11628f55a4df523b3ef836040516118559190611b09565b60405180910390a3505050565b61186c82826109e8565b6118af5780826040517fe2517d3f0000000000000000000000000000000000000000000000000000000081526004016118a6929190611fdb565b60405180910390fd5b5050565b6118bb6108c5565b6118f1576040517f8dfc202b00000000000000000000000000000000000000000000000000000000815260040160405180910390fd5b565b600080fd5b60007fffffffff0000000000000000000000000000000000000000000000000000000082169050919050565b61192d816118f8565b811461193857600080fd5b50565b60008135905061194a81611924565b92915050565b600060208284031215611966576119656118f3565b5b60006119748482850161193b565b91505092915050565b60008115159050919050565b6119928161197d565b82525050565b60006020820190506119ad6000830184611989565b92915050565b600081519050919050565b600082825260208201905092915050565b60005b838110156119ed5780820151818401526020810190506119d2565b60008484015250505050565b6000601f19601f8301169050919050565b6000611a15826119b3565b611a1f81856119be565b9350611a2f8185602086016119cf565b611a38816119f9565b840191505092915050565b60006020820190508181036000830152611a5d8184611a0a565b905092915050565b600073ffffffffffffffffffffffffffffffffffffffff82169050919050565b6000611a9082611a65565b9050919050565b611aa081611a85565b8114611aab57600080fd5b50565b600081359050611abd81611a97565b92915050565b600060208284031215611ad957611ad86118f3565b5b6000611ae784828501611aae565b91505092915050565b6000819050919050565b611b0381611af0565b82525050565b6000602082019050611b1e6000830184611afa565b92915050565b611b2d81611af0565b8114611b3857600080fd5b50565b600081359050611b4a81611b24565b92915050565b60008060408385031215611b6757611b666118f3565b5b6000611b7585828601611aae565b9250506020611b8685828601611b3b565b9150509250929050565b600080600060608486031215611ba957611ba86118f3565b5b6000611bb786828701611aae565b9350506020611bc886828701611aae565b9250506040611bd986828701611b3b565b9150509250925092565b6000819050919050565b611bf681611be3565b8114611c0157600080fd5b50565b600081359050611c1381611bed565b92915050565b600060208284031215611c2f57611c2e6118f3565b5b6000611c3d84828501611c04565b91505092915050565b611c4f81611be3565b82525050565b6000602082019050611c6a6000830184611c46565b92915050565b60008060408385031215611c8757611c866118f3565b5b6000611c9585828601611c04565b9250506020611ca685828601611aae565b9150509250929050565b600060ff82169050919050565b611cc681611cb0565b82525050565b6000602082019050611ce16000830184611cbd565b92915050565b60008060408385031215611cfe57611cfd6118f3565b5b6000611d0c85828601611aae565b9250506020611d1d85828601611aae565b9150509250929050565b7f4e487b7100000000000000000000000000000000000000000000000000000000600052602260045260246000fd5b60006002820490506001821680611d6e57607f821691505b602082108103611d8157611d80611d27565b5b50919050565b7f434c4554483a206d696e7420616d6f756e74206d75737420626520677265617460008201527f6572207468616e207a65726f0000000000000000000000000000000000000000602082015250565b6000611de3602c836119be565b9150611dee82611d87565b604082019050919050565b60006020820190508181036000830152611e1281611dd6565b9050919050565b7f434c4554483a206275726e20616d6f756e74206d75737420626520677265617460008201527f6572207468616e207a65726f0000000000000000000000000000000000000000602082015250565b6000611e75602c836119be565b9150611e8082611e19565b604082019050919050565b60006020820190508181036000830152611ea481611e68565b9050919050565b7f4e487b7100000000000000000000000000000000000000000000000000000000600052601160045260246000fd5b6000611ee582611af0565b9150611ef083611af0565b9250828201905080821115611f0857611f07611eab565b5b92915050565b7f4e6f207265776172647320746f20636c61696d00000000000000000000000000600082015250565b6000611f446013836119be565b9150611f4f82611f0e565b602082019050919050565b60006020820190508181036000830152611f7381611f37565b9050919050565b611f8381611a85565b82525050565b6000606082019050611f9e6000830186611f7a565b611fab6020830185611afa565b611fb86040830184611afa565b949350505050565b6000602082019050611fd56000830184611f7a565b92915050565b6000604082019050611ff06000830185611f7a565b611ffd6020830184611c46565b939250505056fea2646970667358221220e13e1ef4633bc243a65a28702c7a51bc507327eccc8f83899ce5cd9debe0410264736f6c63430008140033",
  "linkReferences": {},
  "deployedLinkReferences": {}
}